{
  "_format": "hh-sol-artifact-1",
  "contractName": "EthWord",
  "sourceName": "contracts/EthWord.sol",
  "abi": [
    {
      "inputs": [
        {
          "internalType": "address",
          "name": "to",
          "type": "address"
        },
        {
          "internalType": "uint256",
          "name": "wordCount",
          "type": "uint256"
        },
        {
          "internalType": "bytes32",
          "name": "tip",
          "type": "bytes32"
        }
      ],
      "stateMutability": "payable",
      "type": "constructor"
    },
    {
      "inputs": [],
      "name": "channelRecipient",
      "outputs": [
        {
          "internalType": "address payable",
          "name": "",
          "type": "address"
        }
      ],
      "stateMutability": "view",
      "type": "function"
    },
    {
      "inputs": [],
      "name": "channelSender",
      "outputs": [
        {
          "internalType": "address payable",
          "name": "",
          "type": "address"
        }
      ],
      "stateMutability": "view",
      "type": "function"
    },
    {
      "inputs": [],
      "name": "channelTip",
      "outputs": [
        {
          "internalType": "bytes32",
          "name": "",
          "type": "bytes32"
        }
      ],
      "stateMutability": "view",
      "type": "function"
    },
    {
      "inputs": [
        {
          "internalType": "bytes32",
          "name": "_word",
          "type": "bytes32"
        },
        {
          "internalType": "uint256",
          "name": "_wordCount",
          "type": "uint256"
        }
      ],
      "name": "closeChannel",
      "outputs": [],
      "stateMutability": "nonpayable",
      "type": "function"
    },
    {
      "inputs": [
        {
          "internalType": "bytes32",
          "name": "_word",
          "type": "bytes32"
        },
        {
          "internalType": "uint256",
          "name": "_wordCount",
          "type": "uint256"
        }
      ],
      "name": "simulateCloseChannel",
      "outputs": [
        {
          "internalType": "bool",
          "name": "",
          "type": "bool"
        },
        {
          "internalType": "uint256",
          "name": "",
          "type": "uint256"
        }
      ],
      "stateMutability": "view",
      "type": "function"
    },
    {
      "inputs": [],
      "name": "totalWordCount",
      "outputs": [
        {
          "internalType": "uint256",
          "name": "",
          "type": "uint256"
        }
      ],
      "stateMutability": "view",
      "type": "function"
    }
  ],
  "bytecode": "0x608060405260405162000fec38038062000fec8339818101604052810190620000299190620002a1565b600073ffffffffffffffffffffffffffffffffffffffff168373ffffffffffffffffffffffffffffffffffffffff16036200009b576040517f08c379a0000000000000000000000000000000000000000000000000000000008152600401620000929062000384565b60405180910390fd5b60008211620000e1576040517f08c379a0000000000000000000000000000000000000000000000000000000008152600401620000d890620003f6565b60405180910390fd5b6000801b810362000129576040517f08c379a0000000000000000000000000000000000000000000000000000000008152600401620001209062000468565b60405180910390fd5b82600160006101000a81548173ffffffffffffffffffffffffffffffffffffffff021916908373ffffffffffffffffffffffffffffffffffffffff160217905550336000806101000a81548173ffffffffffffffffffffffffffffffffffffffff021916908373ffffffffffffffffffffffffffffffffffffffff16021790555081600281905550806003819055505050506200048a565b600080fd5b600073ffffffffffffffffffffffffffffffffffffffff82169050919050565b6000620001f382620001c6565b9050919050565b6200020581620001e6565b81146200021157600080fd5b50565b6000815190506200022581620001fa565b92915050565b6000819050919050565b62000240816200022b565b81146200024c57600080fd5b50565b600081519050620002608162000235565b92915050565b6000819050919050565b6200027b8162000266565b81146200028757600080fd5b50565b6000815190506200029b8162000270565b92915050565b600080600060608486031215620002bd57620002bc620001c1565b5b6000620002cd8682870162000214565b9350506020620002e0868287016200024f565b9250506040620002f3868287016200028a565b9150509250925092565b600082825260208201905092915050565b7f526563697069656e742063616e6e6f7420626520746865207a65726f2061646460008201527f7265737300000000000000000000000000000000000000000000000000000000602082015250565b60006200036c602483620002fd565b915062000379826200030e565b604082019050919050565b600060208201905081810360008301526200039f816200035d565b9050919050565b7f576f726420636f756e74206d75737420626520706f7369746976650000000000600082015250565b6000620003de601b83620002fd565b9150620003eb82620003a6565b602082019050919050565b600060208201905081810360008301526200041181620003cf565b9050919050565b7f496e697469616c207469702063616e6e6f74206265207a65726f000000000000600082015250565b600062000450601a83620002fd565b91506200045d8262000418565b602082019050919050565b60006020820190508181036000830152620004838162000441565b9050919050565b610b52806200049a6000396000f3fe608060405234801561001057600080fd5b50600436106100625760003560e01c806304758e7914610067578063075aa0c4146100855780632df3ad9c146100a35780634632508f146100bf578063e0b03d59146100f0578063e3a50ca81461010e575b600080fd5b61006f61012c565b60405161007c9190610592565b60405180910390f35b61008d610152565b60405161009a9190610592565b60405180910390f35b6100bd60048036038101906100b8919061061e565b610176565b005b6100d960048036038101906100d4919061061e565b610396565b6040516100e7929190610688565b60405180910390f35b6100f8610467565b60405161010591906106c0565b60405180910390f35b61011661046d565b60405161012391906106db565b60405180910390f35b600160009054906101000a900473ffffffffffffffffffffffffffffffffffffffff1681565b60008054906101000a900473ffffffffffffffffffffffffffffffffffffffff1681565b600160009054906101000a900473ffffffffffffffffffffffffffffffffffffffff1673ffffffffffffffffffffffffffffffffffffffff163373ffffffffffffffffffffffffffffffffffffffff1614610206576040517f08c379a00000000000000000000000000000000000000000000000000000000081526004016101fd90610779565b60405180910390fd5b60025481111561024b576040517f08c379a00000000000000000000000000000000000000000000000000000000081526004016102429061080b565b60405180910390fd5b60006102578383610473565b905080610299576040517f08c379a000000000000000000000000000000000000000000000000000000000815260040161029090610877565b60405180910390fd5b60006102a483610505565b90506000600160009054906101000a900473ffffffffffffffffffffffffffffffffffffffff1673ffffffffffffffffffffffffffffffffffffffff16826040516102ee906108c8565b60006040518083038185875af1925050503d806000811461032b576040519150601f19603f3d011682016040523d82523d6000602084013e610330565b606091505b5050905080610374576040517f08c379a000000000000000000000000000000000000000000000000000000000815260040161036b90610929565b60405180910390fd5b84600381905550836002546103899190610978565b6002819055505050505050565b600080600160009054906101000a900473ffffffffffffffffffffffffffffffffffffffff1673ffffffffffffffffffffffffffffffffffffffff163373ffffffffffffffffffffffffffffffffffffffff1614610429576040517f08c379a000000000000000000000000000000000000000000000000000000000815260040161042090610a1e565b60405180910390fd5b60006104358585610473565b905080610449576000809250925050610460565b600061045485610505565b90506001819350935050505b9250929050565b60035481565b60025481565b600080820361048557600090506104ff565b6000836040516020016104989190610a5f565b6040516020818303038152906040528051906020012090506000600190505b838110156104f557816040516020016104d09190610a5f565b60405160208183030381529060405280519060200120915080806001019150506104b7565b5060035481149150505b92915050565b600080826002546105169190610978565b905060008103610529574791505061054c565b6000600254476105399190610aa9565b905083816105479190610ada565b925050505b919050565b600073ffffffffffffffffffffffffffffffffffffffff82169050919050565b600061057c82610551565b9050919050565b61058c81610571565b82525050565b60006020820190506105a76000830184610583565b92915050565b600080fd5b6000819050919050565b6105c5816105b2565b81146105d057600080fd5b50565b6000813590506105e2816105bc565b92915050565b6000819050919050565b6105fb816105e8565b811461060657600080fd5b50565b600081359050610618816105f2565b92915050565b60008060408385031215610635576106346105ad565b5b6000610643858286016105d3565b925050602061065485828601610609565b9150509250929050565b60008115159050919050565b6106738161065e565b82525050565b610682816105e8565b82525050565b600060408201905061069d600083018561066a565b6106aa6020830184610679565b9392505050565b6106ba816105b2565b82525050565b60006020820190506106d560008301846106b1565b92915050565b60006020820190506106f06000830184610679565b92915050565b600082825260208201905092915050565b7f4f6e6c792074686520726563697069656e742063616e20636c6f73652074686560008201527f206368616e6e656c000000000000000000000000000000000000000000000000602082015250565b60006107636028836106f6565b915061076e82610707565b604082019050919050565b6000602082019050818103600083015261079281610756565b9050919050565b7f576f726420636f756e74206578636565647320617661696c61626c6520776f7260008201527f6473000000000000000000000000000000000000000000000000000000000000602082015250565b60006107f56022836106f6565b915061080082610799565b604082019050919050565b60006020820190508181036000830152610824816107e8565b9050919050565b7f576f7264206f7220576f7264436f756e74206e6f742076616c69642100000000600082015250565b6000610861601c836106f6565b915061086c8261082b565b602082019050919050565b6000602082019050818103600083015261089081610854565b9050919050565b600081905092915050565b50565b60006108b2600083610897565b91506108bd826108a2565b600082019050919050565b60006108d3826108a5565b9150819050919050565b7f4661696c656420746f2073656e64204574686572000000000000000000000000600082015250565b60006109136014836106f6565b915061091e826108dd565b602082019050919050565b6000602082019050818103600083015261094281610906565b9050919050565b7f4e487b7100000000000000000000000000000000000000000000000000000000600052601160045260246000fd5b6000610983826105e8565b915061098e836105e8565b92508282039050818111156109a6576109a5610949565b5b92915050565b7f4f6e6c792074686520726563697069656e742063616e2073696d756c6174652060008201527f636c6f73696e6720746865206368616e6e656c00000000000000000000000000602082015250565b6000610a086033836106f6565b9150610a13826109ac565b604082019050919050565b60006020820190508181036000830152610a37816109fb565b9050919050565b6000819050919050565b610a59610a54826105b2565b610a3e565b82525050565b6000610a6b8284610a48565b60208201915081905092915050565b7f4e487b7100000000000000000000000000000000000000000000000000000000600052601260045260246000fd5b6000610ab4826105e8565b9150610abf836105e8565b925082610acf57610ace610a7a565b5b828204905092915050565b6000610ae5826105e8565b9150610af0836105e8565b9250828202610afe816105e8565b91508282048414831517610b1557610b14610949565b5b509291505056fea2646970667358221220b67bfa2747b6ecac6a2de47262c8134233aaf4a10994c7b98c1bfd1e0499ebf664736f6c63430008180033",
  "linkReferences": {},
  "deployedLinkReferences": {}
}